:020000040800F2
:1000000000000220950C0008910C000865490008CA
:10001000910C0008910C0008910C000800000000F1
:10002000000000000000000000000000910C00082B
:10003000910C000800000000910C0008E94800083D
:10004000910C0008910C0008910C0008910C00081C
:10005000910C0008910C0008910C0008910C00080C
:10006000910C0008910C0008910C0008F144000864
:10007000FD440008713200080945000815450008D4
:1000800009FD0008213A0008910C0008910C0008B5
:10009000910C0008910C0008910C0008910C0008CC
:1000A000910C0008910C0008910C0008910C0008BC
:1000B00021F100082DF1000839F10008553A000837
:1000C000910C0008613A0008910C000891E90008C1
:1000D0009DE900083DFB000869FB00089DFB000846
:1000E000910C0008910C000800000000910C000821
:1000F000910C0008910C0008910C0008910C00086C
:10010000910C0008910C000845F10008A9E90008CD
:10011000D1FB000805FC0008910C0008910C0008B8
:10012000910C0008910C0008CDE9000801EA0008D4
:100130003DFD0008910C0008910C0008910C00088E
:1001400000000000000000000000000000000000AF
:10015000910C0008910C0008910C000839FC000873
:100160006D3A0008910C0008F94800081D49000884
:10017000910C000841490008910C0008910C0008FE
:10018000910C0008910C00086DFC0008A1FC00080F
:10019000B5E90008C1E90008910C0008910C0008BD
:1001A000910C0008910C0008910C0008910C0008BB
:1001B00011420008910C0008910C0008910C0008F5
:1001C000910C0008910C0008252D0008312D000825
:1001D000910C00083D2D0008910C0008910C0008BE
:1001E000910C0008910C0008910C0008910C00087B
:1001F000910C0008910C0008910C0008910C00086B
:10020000910C0008910C0008910C0008910C00085A
:10021000910C0008910C0008910C0008910C00084A
:10022000910C0008910C0008910C000800000000DF
:10023000910C0008910C000800000000910C0008CF
:10024000910C0008910C0008910C0008910C00081A
:10025000910C0008910C0008910C0008910C00080A
:10026000910C0008910C0008910C0008910C0008FA
:10027000910C0008910C0008D5FC0008000000005B
:10028000910C0008910C0008910C0008000000007F
:0802900000000000910C0008C1
:1002A00010B5054C237833B9044B13B10448AFF3B0
:1002B00000800123237010BD080600240000000008
:1002C000884B010808B5034B1BB103490348AFF342
:1002D000008008BD000000000C060024884B0108C7
:1002E00001F0FF01102A2BDB10F0070F08D010F8E7
:1002F000013B013A8B422DD010F0070F42B3F6D1EB
:10030000F0B441EA012141EA014122F007047FF003
:1003100000070023F0E80256083C85EA010586EA5A
:10032000010685FA47F5A3FA87F586FA47F6A5FA96
:1003300087F68EB9EED1F0BC01F0FF0102F00702A2
:1003400032B110F8013B013A83EA010313B1F8D14D
:100350000020704701387047002D06BF354603382E
:10036000073815F0010F07D1013015F4807F02BF67
:10037000013015F4C03F0130F0BC0138704700BFB8
:1003800081F0004102E000BF83F0004330B54FEA46
:1003900041044FEA430594EA050F08BF90EA020FB3
:1003A0001FBF54EA000C55EA020C7FEA645C7FEA46
:1003B000655C00F0E2804FEA5454D4EB5555B8BF69
:1003C0006D420CDD2C4480EA020281EA030382EADA
:1003D000000083EA010180EA020281EA0303362D6C
:1003E00088BF30BD11F0004F4FEA01314FF4801C3F
:1003F0004CEA113102D0404261EB410113F0004F51
:100400004FEA03334CEA133302D0524263EB430307
:1004100094EA050F00F0A780A4F10104D5F1200EA5
:100420000DDB02FA0EFC22FA05F2801841F1000100
:1004300003FA0EF2801843FA05F359410EE0A5F1D4
:1004400020050EF1200E012A03FA0EFC28BF4CF005
:10045000020C43FA05F3C01851EBE37101F00045BB
:1004600007D54FF0000EDCF1000C7EEB00006EEBC8
:100470000101B1F5801F1BD3B1F5001F0CD3490852
:100480005FEA30004FEA3C0C04F101044FEA4452A9
:1004900012F5800F80F09A80BCF1004F08BF5FEA30
:1004A000500C50F1000041EB045141EA050130BD10
:1004B0005FEA4C0C404141EB0101013C28BFB1F522
:1004C000801FE9D291F0000F04BF01460020B1FA6D
:1004D00081F308BF2033A3F10B03B3F120020CDA40
:1004E0000C3208DD02F1140CC2F10C0201FA0CF01E
:1004F00021FA02F10CE002F11402D8BFC2F1200C83
:1005000001FA02F120FA0CFCDCBF41EA0C01904038
:10051000E41AA2BF01EB0451294330BD6FEA040481
:100520001F3C1CDA0C340EDC04F11404C4F120026C
:1005300020FA04F001FA02F340EA030021FA04F37E
:1005400045EA030130BDC4F10C04C4F1200220FAD5
:1005500002F001FA04F340EA0300294630BD21FA13
:1005600004F0294630BD94F0000F83F4801306BFD9
:1005700081F480110134013D4EE77FEA645C18BFCD
:100580007FEA655C29D094EA050F08BF90EA020F64
:1005900005D054EA000C04BF1946104630BD91EA5C
:1005A000030F1EBF0021002030BD5FEA545C05D15F
:1005B0004000494128BF41F0004130BD14F580049E
:1005C0003CBF01F5801130BD01F0004545F0FE4112
:1005D00041F470014FF0000030BD7FEA645C1ABF47
:1005E000194610467FEA655C1CBF0B46024650EA7E
:1005F000013406BF52EA033591EA030F41F40021AA
:1006000030BD00BF90F0000F04BF0021704730B52F
:100610004FF4806404F132044FF000054FF0000104
:1006200050E700BF90F0000F04BF0021704730B5C5
:100630004FF4806404F1320410F0004548BF40429A
:100640004FF000013EE700BF42004FEAE2014FEAEF
:1006500031014FEA02701FBF12F07F4393F07F4FCA
:1006600081F06051704732F07F4208BF704793F0CD
:100670007F4F04BF41F40021704730B54FF46074E0
:1006800001F0004521F000411CE700BF50EA0102E3
:1006900008BF704730B54FF000050AE050EA01028C
:1006A00008BF704730B511F0004502D5404261EBFC
:1006B00041014FF4806404F132045FEA915C3FF43D
:1006C000D8AE4FF003025FEADC0C18BF03325FEADA
:1006D000DC0C18BF033202EBDC02C2F1200300FA8B
:1006E00003FC20FA02F001FA03FE40EA0E0021FAB0
:1006F00002F11444BDE600BF53B94AB9002908BF4E
:1007000000281CBF4FF0FF314FF0FF3000F0BEBAA1
:10071000ADF1080C6DE904CE00F050F9DDF804E00D
:10072000DDE9022304B0704760EE016A20EEA16AA1
:1007300020EE215A76EEC67A61EE205AF4EE677A00
:10074000F1EE10FA35EE257A04D6B0EE670AF0EE37
:10075000470A7047B4EE477AF1EE10FAF5D7DFEDAD
:10076000934AB0EEC04AB4EE644AF1EE10FACCBF40
:1007700001230023B0EEE04A00F39D80B4EE644A0A
:10078000F1EE10FA00F397800023DFED884AB0EE17
:10079000C14AB4EE644AF1EE10FAF0EEE13A48DCF8
:1007A000F4EE643AF1EE10FA43DC9BBBF0EEE66A3D
:1007B000F4EE646AF1EE10FA14DCB0EEC66AB4EE40
:1007C000646AF1EE10FA0DDCB0EEC55AB4EE645A6C
:1007D000F1EE10FA06DCF0EEE55AF4EE645AF1EEB2
:1007E00010FAB2DDB4EE400AF1EE10FA80F1D380D7
:1007F000F4EE600AF1EE10FA80F1C380B4EE411A13
:10080000F1EE10FA80F1B380F4EE611AF1EE10FA15
:1008100080F1A38061EEE07A60EE810AE0EE017A79
:10082000E0EE210A9FED627A67EE877A20EE877A02
:100830008BE7DFED5E7A9FED5D7AB4EE674AF1EE0D
:1008400010FACCBF0123002307EE903A11EE103AC4
:10085000F8EEE77A002BF0EEE77AF4EE473AB8BF0D
:10086000F1EE677AF1EE10FACCBF01230023B0EE6F
:10087000671A07EE903A11EE903AF8EEE77A002BFD
:10088000F0EEE77AB4EE400AB8BFF1EE677AF1EE27
:1008900010FAF0EE671A4CD6F4EE600AF1EE10FA98
:1008A000B8D710EE903A9FED437ADFED437A002BF4
:1008B00067FE270AAEE704EE903ADFED3C3A10EE11
:1008C000103AF8EEE44A002BF0EEE44AB4EE634A44
:1008D000B8BFF1EE644AF1EE10FACCBF0123002359
:1008E000B0EE640A04EE903A10EE903AF8EEE44A64
:1008F000002BF0EEE44AB4EE411AB8BFF1EE644AC0
:10090000F1EE10FAF0EE640A1DD6F4EE611AF1EE83
:1009100010FA78BF0123FFF538AF11EE903A9FED42
:10092000254ADFED254A002B4FF0010364FE241A0F
:100930002BE710EE103A9FED1F7ADFED1F7A002BA8
:1009400027FE270AA8E711EE103A9FED1A4ADFEDBD
:100950001A4A002B24FE241AD7E711EE903A9FED95
:10096000157ADFED157A002B67FE271A52E711EE94
:10097000103A9FED107ADFED107A002B27FE271A30
:1009800042E710EE903A9FED0B7ADFED0B7A002BE9
:1009900067FE270A32E710EE103A9FED067ADFED88
:1009A000067A002B27FE270A22E700BFFFFF7F7F82
:1009B0000000807F00000000000000802DE9F0476B
:1009C000089D04468E46002B4DD18A42944669D933
:1009D000B2FA82F252B101FA02F3C2F1200120FA16
:1009E00001F10CFA02FC41EA030E94404FEA1C4864
:1009F000210CBEFBF8F61FFA8CF708FB16E341EA60
:100A0000034306FB07F199420AD91CEB030306F1E5
:100A1000FF3080F01F81994240F21C81023E634406
:100A20005B1AA4B2B3FBF8F008FB103344EA0344AA
:100A300000FB07F7A7420AD91CEB040400F1FF33BF
:100A400080F00A81A74240F207816444023840EAFC
:100A50000640E41B00261DB1D4400023C5E9004335
:100A60003146BDE8F0878B4209D9002D00F0EF80B8
:100A70000026C5E9000130463146BDE8F087B3FAEB
:100A800083F6002E4AD18B4202D3824200F2F980D3
:100A9000841A61EB030301209E46002DE0D0C5E9D6
:100AA000004EDDE702B9FFDEB2FA82F2002A40F022
:100AB0009280A1EB0C014FEA1C471FFA8CFE012625
:100AC000200CB1FBF7F307FB131140EA01410EFBC9
:100AD00003F0884208D91CEB010103F1FF3802D270
:100AE000884200F2CB804346091AA4B2B1FBF7F06A
:100AF00007FB101144EA01440EFB00FEA64508D98D
:100B00001CEB040400F1FF3102D2A64500F2BB80C9
:100B10000846A4EB0E0440EA03409CE7C6F1200718
:100B2000B34022FA07FC4CEA030C20FA07F401FA5E
:100B300006F31C43F9404FEA1C4900FA06F3B1FBE7
:100B4000F9F8200C1FFA8CFE09FB181140EA01414C
:100B500008FB0EF0884202FA06F20BD91CEB0101E9
:100B600008F1FF3A80F08880884240F28580A8F141
:100B700002086144091AA4B2B1FBF9F009FB101193
:100B800044EA014100FB0EFE8E4508D91CEB010131
:100B900000F1FF346CD28E456AD90238614440EAD4
:100BA0000840A0FB0294A1EB0E01A142C846A64654
:100BB00056D353D05DB1B3EB080261EB0E0101FADD
:100BC00007F722FA06F3F1401F43C5E9007100263A
:100BD0003146BDE8F087C2F12003D8400CFA02FC90
:100BE00021FA03F3914001434FEA1C471FFA8CFEA0
:100BF000B3FBF7F007FB10360B0C43EA064300FB90
:100C00000EF69E4204FA02F408D91CEB030300F12D
:100C1000FF382FD29E422DD9023863449B1B89B2E4
:100C2000B3FBF7F607FB163341EA034106FB0EF36D
:100C30008B4208D91CEB010106F1FF3816D28B421A
:100C400014D9023E6144C91A46EA004638E72E46E6
:100C5000284605E70646E3E61846F8E64B45A9D2DE
:100C6000B9EB020864EB0C0E0138A3E74646EAE74D
:100C7000204694E74046D1E7D0467BE7023B6144FB
:100C800032E7304609E76444023842E7704700BF64
:100C9000FEE700BF0B480C4A904203D0121A0B49E2
:100CA00012F090FA0A480B4A904203D0121A00211F
:100CB00012F0B0FA04F0AEF812F050FA00F074F846
:100CC000FEE700BF0000002408060024BC4B01081A
:100CD00008060024BC5F0024704700BF002A54D0DF
:100CE000D0E900132DE9F04F03EB820C274A0025D1
:100CF000DFF8A8A0DFF8A8B01778A946244AAE46C6
:100D00009AF80060A846DBF800001468DFED216A5D
:100D1000214AF3EC017A7EB991ED007A02EB800270
:100D200001304FF0010E27EE267A3F2882ED007A3F
:100D300002D93046F04676469FED167A164A67B9D4
:100D400002EB8402013467EE877A01253F2CC2ED65
:100D5000407A02D93C46A9462F469C4501F1040140
:100D6000D4D1B8F1000F01D08AF80060BEF1000FB5
:100D700001D0CBF80000B9F1000F01D0034B1F7078
:100D80000DB1034B1C60BDE8F08F70472D060024A9
:100D9000280600240000C842000000C02C060024E1
:100DA00024060024000000002DE9F04F0021ADF2E0
:100DB0008C4D9D48022400F0A5FC04219A48002592
:100DC00000F0A8FB4021984800F0C4FB964800F0D2
:100DD000BDFB16A800F06CF9944B169A16A8924920
:100DE0001A6000F069FB16A8DFF87C9200F07EFB29
:100DF0008F498D4800F08AFB8E4801F0A1FE012149
:100E00008D4801F09DFEDFF8648203F01BFE8DF833
:100E10002D508DF82C4022460B99C9F800000DA8E2
:100E200001F092FF03238DF8305022468DF83130C7
:100E30000DF146000C9901F087FF042322460DA90D
:100E40007E4801F095FF7D487D4D02F09FF97D4F72
:100E50007D4EDFF81CB2DFF81CA227E0B5EE007A69
:100E600067EE877AB1EE007AB4EEC70AF1EE10FAB7
:100E700037DCB5EE007A20EE070A00216F48CBED93
:100E8000007A8AED000A02F097F9704B01216B4855
:100E900083ED000A02F090F96D4B83ED000A03F038
:100EA000D1FDD9F80030044683423CD198F8003097
:100EB00053BB3B78D3B996ED000AB1EE007AD5ED7D
:100EC000007AF4EEC77AF1EE10FAC7DD85ED007A0C
:100ED000B1EE007AF7EE007AB4EEC70AF1EE10FA3E
:100EE000C7DDB7EE000A86ED007AC6E7DFED590AE6
:100EF00040229FED590A59494C4800F013FA00234B
:100F000086ED000A3B70D8E7DFED520A40229FEDE4
:100F1000520A5349454800F005FA002385ED000ABE
:100F200088F80030C5E7494BDAED005AD3ED006A86
:100F3000474BB0EEE55ADBED004AB0EEE66AD3ED82
:100F4000000AF0EEE47A4748B0EEE07AFDEEC52AFA
:100F5000BDEEC62ABDEEC71AFDEEE71ACDED012A99
:100F6000F5EEC04A8DED042AB8EEC23A8DED071AAF
:100F7000B8EEE20A11EE902AF1EE10FAF8EEE13A3C
:100F8000F5EEC05AF8EEC15A48BF2D2135EE405A51
:100F900058BF202136EE436A37EE657A77EEE33AA2
:100FA000F1EE10FAB7EEC55AF5EEC06AB7EEE33AC5
:100FB00048BF2D23B7EEC66A58BF2023B7EEC77AC5
:100FC000F1EE10FA0093F5EEC00A9FED154B4CBF01
:100FD0002D232023F1EE10FA25EE045B03934CBF82
:100FE0002D23202326EE046B069327EE047B23EEAD
:100FF000044BBDEEC77BBDEEC55BBDEEC66BFDEE23
:10100000C47B8DED087A8DED025A8DED056A17EEE1
:10101000903A01F095FDC9F8004047E7AFF3008032
:101020000000000000408F403C06002438060024E9
:10103000DD0C00088C460108AC460108540600246B
:10104000300600242D0600243406002488060024DF
:101050008C0600240AD7233C0050C346000100C080
:10106000000000C0E04601087C0600242C06002495
:10107000800600248406002408B508480023084A96
:10108000036043610362C363064911F0EDFD9FED08
:10109000060A0648BDE8084000F00AB83C060024ED
:1010A00000000024D90C00080080BB47380600244B
:1010B00080ED000A704700BFF8B5D0E900472DED7C
:1010C000028B3F1BFF102DD07B1E0026251D07EE37
:1010D000903AB8EE678B07EE906A0834083501360F
:1010E000B8EEE77B9FED126B27EE067B87EE080BD1
:1010F000B7EEC00B11F0E0FDF7EE007AB6EE006A35
:1011000014ED017A55ED036ABE4237EEC00A20EEB7
:10111000060A20EE077A26EE800A05ED030A04EDA2
:10112000017AD8D1BDEC028BF8BD00BFAFF30080CF
:10113000182D4454FB2119402DE9F047D1E9003422
:101140002DED048BE41A86B0082C04D806B0BDEC53
:10115000048BBDE8F087E410B4F1005F4FEA54055A
:1011600080F0D78000230646CDE900330293002D9E
:1011700000F0B480EF008846384611F07CFDC119BC
:101180000090029108300022884240F8082C40F874
:10119000042CF7D10023019038460593CDE90333A1
:1011A00011F069FDC119034603900591083300222F
:1011B0008B4243F8082C43F8042CF7D104930246E1
:1011C000D8F80030009903EB051C1868103308327A
:1011D000083141F8080C9C4553F80C0C41F8040CFC
:1011E00053F8080C42F8080C53F8040C42F8040CAD
:1011F000EBD130466946FFF79FFF304603A9FFF762
:101200009BFF07EE904AD8F800604FF00008DDF829
:101210000C90B8EEE79B3744009CCA4607EE908AD4
:101220009FED3D6BB8EEE77B27EE067B87EE090B63
:10123000F7EEC08BB0EE680A11F03EFDB0EE408ACA
:10124000B0EE680A11F034FE9AED001ADAED011AD8
:1012500020EE017A60EE617AA1EE887AE8EE017AFA
:10126000F4EE477AF1EE10FA48D6D4ED016A08366A
:1012700094ED006A234677EE266A08F1010836EEFF
:10128000276A083745450AF1080A46ED016A04F164
:10129000080406ED026A14ED016AD3ED006A36EE29
:1012A000477A76EEE77A07ED017A47ED027AB5D113
:1012B000B9F1000F05D005994846A1EB090111F0DD
:1012C000D8FC009800283FF441AF0299091A11F0A8
:1012D000D0FC06B0BDEC048BBDE8F08769460095F4
:1012E0000395CDE90155CDE90455FFF725FF03A985
:1012F0003046FFF721FFDDF80C90D9E7F0EE400A09
:10130000B0EE480AFFF710FAF0EE407AB0EE607ADD
:10131000ABE7034811F0C0FC182D4454FB2119C061
:1013200040470108B2F1805F2DE9F0412DED028BBD
:1013300086B080F08E800024F0EE408AB0EE608AA5
:10134000164607460594CDE90344002A77D0D2001B
:101350000D461046019211F08EFC019A214604467A
:1013600000EB02080390CDF8148011F053FF2346E0
:10137000294605EB8604CDF8108051F8040B0022B5
:1013800008338C4243F8080C43F8042CF5D103A829
:10139000FFF792FE384603A9FFF7CEFEF7EE000AEC
:1013A00007EE906AD7ED006A7308039830EEC87AAA
:1013B000F8EEE77A78EE200A27EE287A20EEA88A5F
:1013C00027EE277A28EE278AC7EE267A88EE267A35
:1013D0009FED218AFCEEE77A17EE904AFCEEC77A81
:1013E000B4EB560F28BF03F1FF3417EE905AAB420F
:1013F00098BF03F1FF35AC4215D800EBC40393ED61
:10140000010AD3ED007A20EE000AA7EEA70AB5EE96
:10141000400AF1EE10FA16D4F1EEC07A0134A5427A
:1014200038EE278AE9D218B10599091A11F021FC82
:10143000B0EE480A06B0BDEC028BBDE8F081039225
:10144000CDE90422A3E711F039FE0398F0EE407ACB
:10145000E4E7024811F020FC0000000040470108CA
:10146000F0B5144E336823B318B311B30F6807B344
:101470004FF0000C00E033689D68D3E90342A21AE4
:1014800004F1010E48BF5219013D95420DD0C3F839
:101490000CE05A6810F80C5015550F68D3E9024259
:1014A000A242A2EB040228BFDA600CF1010C6745EE
:1014B000E1D8F0BD9006002430B40446002240F28A
:1014C000014544F8141B00F584618560C0F81814C8
:1014D00005494460C0F81C2480F82024086030BC12
:1014E000C0E90322704700BF9006002410B50446EF
:1014F000012001F033FB0022206803492430BDE8BD
:10150000104001F0F3BB00BF61140008143001F07B
:1015100069BA00BF38B500F1140504462DED028B01
:10152000284601F01BFA284601F014FA2846B0EECE
:10153000408A01F0FDF9D0ED007AF8EE677A88EE86
:10154000277ABDEC028B84ED0E7A38BD143001F0A1
:1015500001BA00BF38B500F1140504462DED028B29
:10156000284601F0E9F9284601F0F4F92846B0EEE2
:10157000408A01F0DDF9D0ED007AF8EE677A88EE66
:10158000277ABDEC028B84ED0E7A38BD10B540F29F
:1015900003338EB000244FF60B7240F20341ADF8D6
:1015A000083009A80123ADF81020ADF82420224608
:1015B000ADF80C100094029907940C94CDE9054401
:1015C000CDE90A4401F000FF04A801232246039953
:1015D000009401F0F9FE09A801F0DCFF10B9012028
:1015E0000EB010BD04A801F0D5FFA0420CBF022030
:1015F00020460EB010BD00BF2DE9F04103239AB084
:10160000012700240646CDE914373B4BCDE91043B2
:1016100040F20453CDE91647ADF84830FFF7B6FF66
:10162000B842054625D0022845D040F60132334B5A
:101630000DF12C081894ADF82C200B981997CDF8C3
:101640004A3000F0E3F810A906F13C0002F0DCFF9C
:10165000302003224FF07E5341460D930E93CDE987
:101660000B02F26B06F1140001F02AF91AB0BDE882
:10167000F0811023214A06A906908DF828300DF13B
:101680002C081F4BCDF84A2007930294CDE918048B
:10169000CDE9080402A802F0EFF90823029A03A991
:1016A0004046ADF80C508DF80E40049505930B9410
:1016B00000F0ECF8C7E700200121104B0DF12C08D9
:1016C0003A460094CDF84A304FF60B730C94ADF8BF
:1016D0002C302346CDE9180140F601314046ADF8E3
:1016E00018100699CDE90D4401F06EFE21464046E2
:1016F00001F05CFFA7E700BF040204040406040332
:101700000704010B2DE9F04704462DED028B82B052
:1017100000294DD0012140F2011200230091ADF8C3
:1017200004208DF80630364A0127364B04F10409AF
:10173000354904F12908626040F20272A36040F664
:101740000663E16004F1250AA4F82520A4F82930F5
:10175000278284F8277084F82B7003F011FB05466C
:1017600003F074F96946064650BB4DB304F13000EE
:101770008DF8067003F08CFA072D3CD104F11405A6
:101780002046FFF739FF284601F0E4F82846B0EE7E
:10179000408A01F0CDF8D0ED007AF8EE677A88EE55
:1017A000277A84ED0E7A02B0BDEC028BBDE8F0879B
:1017B00040F2011300918DF80610ADF80430B2E745
:1017C00004F1300003F064FA072D11D04946204699
:1017D00002F09AFB0EB9002DD0D1504601F0F0FE78
:1017E000404601F0EDFE04F1120000F079F9C5E782
:1017F000002EF2D1C2E74946204602F085FBBDE744
:101800000508050905070506050A060610B584B092
:1018100003460124ADF8040003A8ADF80C30ADF880
:101820000E4001F0CDFE214603A801F0A5FF2046A1
:1018300003F00AF9002103A801F09EFF204603F0FF
:1018400003F9214603A801F097FF04B010BD00BFC3
:1018500010B5C2F3002384B00C46017C8DF80D2036
:1018600043EA4402FA2402238DF80C2003AA0094D0
:1018700002F098F918B10124204604B010BD0446C6
:101880000A2003F0E1F8204604B010BD034670B50D
:1018900043F8042B044684B007C983E80700A37902
:1018A00083B91A210B461E22FA2523742046ADF86F
:1018B0000C20022303AA009502F074F928B101203C
:1018C00004B070BD1B210B46EDE70A2003F0BCF805
:1018D0004FF4B85200950223ADF80C20204603AA1D
:1018E000217C02F05FF90028E9D10A2003F0ACF86E
:1018F00041F2027200950223ADF80C20204603AAA3
:10190000217C02F04FF90028D9D10A2003F09CF87D
:10191000042200950223ADF80C20204603AA217C66
:1019200002F040F90028CAD10A2003F08DF80622FF
:1019300000950223ADF80C20204603AA217C02F07A
:1019400031F90028BBD10A2003F07EF841F20822C9
:1019500000950223ADF80C20204603AA217C02F05A
:1019600021F90028ABD10A20064603F06DF8009556
:10197000022303AA217C2046ADF80C6002F012F984
:1019800000289CD1304603F05FF8009522790C23A3
:101990002046002A8DF80C3003AA4FF0020314BF32
:1019A000622142218DF80D10217C02F0FBF8002805
:1019B00085D1304603F048F82279D4E902310B434F
:1019C000DBB20AB943F0400362790AB143F0200365
:1019D0000E22FA258DF80D302046009502238DF851
:1019E0000C2003AA217C02F0DDF800287FF467AF09
:1019F0000A2003F029F8102200950223ADF80C20EC
:101A0000204603AA217C02F0CDF800287FF457AFCE
:101A10000A2003F019F8122100950223ADF80C10EA
:101A200003AA217C204602F0BDF800287FF447AFCE
:101A30000A2003F009F8012209212046FFF708FFD8
:101A4000003818BF01203BE7F0B5102387B0234CC6
:101A5000012200250126002702A920460195CDE993
:101A600002234FF48052CDE904670AF025FC64207C
:101A700003F0D0FF02A94FF480522046CDE904675D
:101A800002261027CDE902670AF016FC0322102374
:101A900002A92046CDE9022300230422CDE9042334
:101AA0004FF480520AF008FC40F23223042202A9CB
:101AB000019310232046CDE90223019A01230592C8
:101AC0004FF4805204930AF0F7FB40F606012046DB
:101AD0000AF012FC284607B0F0BD00BF9C060024A7
:101AE0001C4B00221C494FF0400C30B5054689B014
:101AF0000220596007219A601A620124DA620A22E0
:101B00004FF4006EDC6006922022CDE90001042033
:101B10000821CDE9020103201021CDE904010820AC
:101B20006946C3E904024FF4C072181DC3E906C236
:101B30004FF48052C3E909E20AF094FB38B9284611
:101B4000FFF782FF003818BF012009B030BD2046E2
:101B500009B030BD9806002440410052614A00217E
:101B6000D0B513688EB00A91002B40F0B9805E4B5F
:101B700001214FF683700C2411600221D3F8D42088
:101B80000026032742F48052C3F8D420D3F8D4208F
:101B900002F480520092009AD3F8E02042F0100242
:101BA000C3F8E020D3F8E02002F010020192019A7D
:101BB000D3F8E02042F04002C3F8E020D3F8E02060
:101BC00002F040020292029AD3F8E02042F00802AA
:101BD000C3F8E020D3F8E02002F008020392039A51
:101BE000D3F8E02042F48072C3F8E020D3F8E0207C
:101BF00002F480720492049AD3F8E02042F080024A
:101C0000C3F8E020D3F8E02002F080020592059AA4
:101C1000D3F8E02042F02002C3F8E020D3F8E0201F
:101C200002F020020692069AD3F8E02042F0040265
:101C3000C3F8E020D3F8E0300C9403F004030793DA
:101C40000323079A0B93CDE9080108A9274805F05B
:101C500067FD48F23712022308A925480C94CDE904
:101C60000823CDE90A6705F05BFD4CF203720223FD
:101C700008A920480C94CDE90823CDE90A6705F0AE
:101C80004FFD40F2FF62022308A91B480C94CDE9E6
:101C90000823CDE90A6705F043FD4FF60C720223D5
:101CA00008A916480C94CDE90823CDE90A6705F088
:101CB00037FD4FF63F02022308A911480C94CDE9E5
:101CC0000823CDE90A6705F02BFD2022022308A98D
:101CD0000A480C94CDE90A67CDE9082305F020FDF8
:101CE0000EB0D0BD940600240044025800100258E3
:101CF00000180258000C025800200258001C02581C
:101D0000001402582DE9F04FDFF8108406460D4606
:101D1000144608F118002DED028B89B000AF02F0D7
:101D20006BFDD8F8183073B3D8F81C30D8F804908D
:101D3000002B43690BBF4FF0080A4FF0100A4FF019
:101D4000020B4FF0040BB9F1000F2AD0A200EA46B3
:101D5000012B02F1070222F00702ADEB020D6846EB
:101D6000ADEB020D694600F03F81022B00F0D680FA
:101D7000002B6FD02246C847D5462437BD46BDEC60
:101D8000028BBDE8F08FD8F81C30002BF5D0D8F8C6
:101D900004904FF0080A4FF0020B4369B9F1000FAD
:101DA000D4D1FB61D8F80030BB61002BE5D0D54819
:101DB00002F094FD6B46BBF1020F786108EE103A19
:101DC000FB6900F083816A465146A2EBC402954646
:101DD0006200EA46B2FBFBF2AAEBC40085460AEBBE
:101DE0008200EE46F861ADEB010DF8690EEB820C56
:101DF000C7F810C0EC46ADEB010D00EB8201CCF84A
:101E00000400CCF8081001EB82013869E946CCF8EF
:101E10000C1000EB8201CCF800A001EB8202C9E9B2
:101E200000E0C9E90212012B00F06483022B00F0EC
:101E30006C82002B00F08081620849466046BB69D5
:101E4000984718EE103A24379D46BD46BDEC028BEC
:101E5000BDE8F08F002C8DD01A46D8ED0C6A9FEDAE
:101E6000B27A8446331D36F922E00CF1080C07EEF5
:101E700090EA33F922E00232F8EEE77A944267EE14
:101E8000877A67EEA67A4CED027A07EE90EAF8EED2
:101E9000E77A67EE877A67EEA67A4CED017AE2D8A8
:101EA000F9612246C847984ED8ED0D6A0020F969BD
:101EB0002B1D9FED9E7A9FED9E6ADFED9E5A22E0DC
:101EC000F4EEC67AF1EE10FAC0F2C88447F6FE725C
:101ED000D1ED017A45F8202066EEA77AF4EEC77AB4
:101EE000F1EE10FA40F2F080F4EEC67AF1EE10FA5C
:101EF000C0F2D58447F6FE7243F820200230083144
:101F000084427FF639AFD1ED007A66EEA77AF4EE1F
:101F1000C77AF1EE10FAD3D83246D9E7002C3FF455
:101F200029AFD8ED0C6A84469FED787A0022331DE4
:101F30008E4656F822100CF1080C07EE901A53F852
:101F400022100232F8EEE77A944267EE877A67EE63
:101F5000A67A4CED027A07EE901AF8EEE77A67EE71
:101F6000877A67EEA67A4CED017AE2D8714622466E
:101F7000C7F81CE0C847664ED8ED0D6A0020F96925
:101F80002B1D9FED6A7A9FED6A6ADFF894C120E00D
:101F9000F4EEC67AF1EE10FAC0F279843246D1ED51
:101FA000017A45F8202066EEA77AF4EEC77AF1EEC2
:101FB00010FA40F28780F4EEC67AF1EE10FAC0F221
:101FC0005E84324643F820200230083184427FF696
:101FD000D3AED1ED007A66EEA77AF4EEC77AF1EED1
:101FE00010FAD5D86246DAE7002C3FF4C3AED8ED3C
:101FF0000C6A86469FED477A4FF0000C331D56F869
:102000002C200EF1080E82F40002A2F5000207EE69
:10201000902A53F82C200CF1020CF8EEE77A82F4A7
:1020200000026445A2F5000267EE877A67EEA67AA1
:102030004EED027A07EE902AF8EEE77A67EE877A9D
:1020400067EEA67A4EED017AD9D8F9612246C847E3
:10205000314ED8ED0D6A0020F9692B1D9FED337AC2
:102060009FED336ADFF8BCC01FE0F4EEC67AF1EEF4
:1020700010FAC0F2FC833246D1ED017A45F82020F7
:1020800066EEA77AF4EEC77AF1EE10FA18D9F4EEFC
:10209000C67AF1EE10FAC0F2DA83324643F8202015
:1020A0000230083184427FF667AED1ED007A66EEE9
:1020B000A77AF4EEC77AF1EE10FAD6D86246DBE7DB
:1020C0006246EBE762467DE7324615E7A100D64659
:1020D0006208073121F00701ADEB010DEA46ADEBD7
:1020E000010D6946ADEB0E0D0AEB8200EC46ADEB3F
:1020F0000E0D01EB8202F861E946CCE900A0C9E9C6
:10210000001290E6EC0600240280FFFF0000003081
:102110000082FF7F0000003482FF7F00D006002491
:10212000007E00807E0080FF0000003804FF7FBF3B
:1021300004FF7F3F00FEFF46002C00F0C982BBF188
:10214000020FD8F8242000F0FA827969C7F80490C9
:1021500002EB810E5FED0C5A8A00DCF808100EF1DC
:1021600004007A611A46DCF80C303B61331DD7F865
:1021700010903D61FD69C7E902CB8C46834636F974
:102180002210D8ED0C7A06EE101A33F9221006EE62
:10219000901A3EF92210B8EEC66A07EE101AF8EE51
:1021A000E66A3BF92210B8EEC77A26EE256A66EE9B
:1021B000A56A27EE257A26EE276A66EEA76A27EE3D
:1021C000277A07EE901A51080232F8EEE77A0AEB06
:1021D0008100944280ED006A05EB810067EEA57AEC
:1021E000C0ED006A0CEB810009EB810180ED007A03
:1021F00098ED0C7A67EE877AC1ED007ABFD8D7F8F0
:1022000004903D69D7E902CB60466208BB69494644
:102210009847D8F82C307A69D8ED0D6A1A441FED2A
:102220003D7A1FED3D6A2B1D904602F1040A5FEDD9
:102230003F5A0022A84ED9E900EC51E0F4EEC67AEC
:10224000F1EE10FAC0F2C78247F6FE7045F82200A0
:102250000CEB0100D0ED007A66EEA77AF4EEC77AB7
:10226000F1EE10FA4BD9F4EEC67AF1EE10FAC0F2A4
:10227000BA8247F6FE70BBF1020F43F822002BD062
:10228000D9F808000844D0ED007A66EEA77AF4EE9B
:10229000C77AF1EE10FA36D9F4EEC67AF1EE10FAFA
:1022A000C0F2CD8247F6FE7048F82200D9F80C0043
:1022B0000144D1ED007A66EEA77AF4EEC77AF1EE2A
:1022C00010FA1ED9F4EEC67AF1EE10FAC0F2AF821F
:1022D00047F6FE714AF82210023294427FF6B1AD01
:1022E00051080EEB81008900D0ED007A66EEA77AE6
:1022F000F4EEC77AF1EE10FAA0D83046A6E73046E1
:10230000B9E73146E6E73046CEE7002C00F0E08141
:10231000BBF1020FD8F8243000F0E1817A69DCF8D3
:10232000081003EB820EC7F804909300DFED6B5AA0
:102330000EF1040000227B61DCF80C303B61331DA0
:10234000D7F810903D61FD69C7E902CB8C46834602
:1023500056F82210D8ED0C7A07EE101A53F8221016
:10236000B8EEC76A07EE101A5EF82210F8EEC76AD8
:1023700007EE101A26EE256A5BF82210B8EEC77A2F
:1023800066EEA56A26EE276A27EE257A66EEA76A2C
:1023900027EE277A07EE901A51080232F8EEE77A14
:1023A0000AEB8100944280ED006A05EB810067EE44
:1023B000A57AC0ED006A0CEB810009EB810180ED8C
:1023C000007A98ED0C7A67EE877AC1ED007ABFD873
:1023D000D7F804903D69D7E902CB60466208BB6933
:1023E00049469847D8F82C307A69D8ED0D6A1A44D6
:1023F0009FED3E7A9FED3E6A131D9246DFF8E4C0E2
:102400000022FB612B1D364ED9E9008E4EE0F4EE22
:10241000C67AF1EE10FAC0F2FC81304645F822008F
:102420000EEB0100D0ED007A66EEA77AF4EEC77AE3
:10243000F1EE10FA49D9F4EEC67AF1EE10FAC0F2D4
:10244000EF813046BBF1020F43F822002AD0D9F8C1
:1024500008000844D0ED007A66EEA77AF4EEC77A59
:10246000F1EE10FA35D9F4EEC67AF1EE10FAC0F2B8
:10247000C98130464AF82200D9F80C000144D1ED58
:10248000007A66EEA77AF4EEC77AF1EE10FA1ED95A
:10249000F4EEC67AF1EE10FAC0F2AD813146F86979
:1024A00040F82210023294427FF6CBAC510808EB80
:1024B00081008900D0ED007A66EEA77AF4EEC77A43
:1024C000F1EE10FAA3D86046A8E76046BAE7614685
:1024D000E5E76046CEE700BF0280FFFF0000003066
:1024E0000082FF7F007E00800000003404FF7FBF79
:1024F00004FF7F3F002C00F0EB807A690021D8F8C0
:102500002430C7F8109003EB820ED7F81C9093008C
:10251000FD610EF104021FED0C6A7B61331D15464F
:1025200056F821204808D8ED0C6ABBF1020F82F45E
:102530000002A2F5000207EE902A53F8212082F44F
:102540000002B8EEE77AA2F5000227EE067A07EE5F
:10255000902A0AEB8002F8EEE77A27EE267A67EEF9
:10256000867A82ED007A09EB80024FEA800067EEFE
:10257000A67AC2ED007A27D05EF8212082F400020C
:10258000A2F5000207EE902A55F8212082F40002FD
:10259000B8EEE77AA2F5000227EE067A07EE902A57
:1025A000DCF80820F8EEE77A024427EE267A67EE98
:1025B000867A82ED007A98ED0C7ADCF80C2067EED2
:1025C000877A0244C2ED007A02318C42A8D8D7F84B
:1025D000109060466208BB694946FD699847D8F883
:1025E0002C307A69D8ED0D6A1A441FED407A1FED40
:1025F000406A131D9246DFF8C4C20022FB612B1D06
:10260000AB4ED9E9008E4EE0F4EEC67AF1EE10FA48
:10261000C0F2C580304645F822000EEB0100D0ED37
:10262000007A66EEA77AF4EEC77AF1EE10FA49D98D
:10263000F4EEC67AF1EE10FAC0F2BF803046BBF17C
:10264000020F43F822002AD0D9F808000844D0ED40
:10265000007A66EEA77AF4EEC77AF1EE10FA35D971
:10266000F4EEC67AF1EE10FAC0F2AE8030464AF8C7
:102670002200D9F80C000144D1ED007A66EEA77A69
:10268000F4EEC77AF1EE10FA1ED9F4EEC67AF1EE46
:1026900010FAC0F28B803146F86940F822100232FD
:1026A00094427FF6CEAB510808EB81008900D0ED53
:1026B000007A66EEA77AF4EEC77AF1EE10FAA3D8A4
:1026C0006046A8E76046BAE76146E5E76046CEE7C0
:1026D000224649466046BB699847FFF7B2BBC7F838
:1026E00010B0002298ED0C6A331DDFED726AD7F846
:1026F0001CB0786956F8221007EE901A53F8221091
:10270000B8EEE77A07EE901A51080232F8EEE77A4F
:1027100027EE267A0AEB810E94420BEB810167EEDD
:10272000A67A27EE067A67EE867A8EED007AC1EDFC
:10273000007ADFD88300D7F810B07B614DE61A46E7
:10274000C7F810B098ED0C6A331DDFED5B6AD7F85F
:102750001CB0786936F9221007EE101A33F92210EE
:1027600007EE901AB8EEC77A51080232F8EEE77A0F
:1027700027EE267A0AEB810E94420BEB810167EE7D
:10278000A67A27EE067A67EE867A8EED007AC1ED9C
:10279000007ADFD88300D7F810B07B6134E5F0EE23
:1027A000675AFEEEE45A15EE900A34E7F0EE675AE7
:1027B000FEEEE45A15EE901A6EE7F0EE675AFEEE62
:1027C000E45A15EE900A3AE7F0EE675AFEEEE45A44
:1027D00015EE900A4BE767EEA57AFDEEE77A17EE65
:1027E000900A00B232E567EEA57AFDEEE77A17EEC1
:1027F000900A00B23FE5F0EE675AFEEEE05A15EEA1
:10280000901A4CE6F0EE675AFEEEE05A15EE900A8A
:1028100030E6F0EE675AFEEEE05A15EE900AFDE55E
:10282000F0EE675AFEEEE05A15EE900A0AE667EE01
:10283000A57AFDEEE77A17EE901A09B24AE567EE3F
:10284000A57AFDEEE77A17EE900A00B22CE5F0EEDD
:10285000675AFEEEE45A15EE902A1FE467EEA57A59
:10286000FDEEE77A17EE902A12B2FFF731BBF0EED9
:10287000675AFEEEE45A15EE902AFFF7FDBBF0EE24
:10288000675AFEEEE05A15EE902AFFF79BBBF0EE7A
:10289000675AFEEEE05A15EE902AFFF780BB67EE0E
:1028A000A57AFDEEE77A17EE902A12B2FFF724BB65
:1028B00082FF7F0000000030000000387E0080FFB3
:1028C00030B5184C154685B0046004F1080EEC468E
:1028D0000FC98EE80F00D4ED047AF5EEC07A8CE8CB
:1028E0000F00F1EE10FA1ADDB7EE006A94ED057AEA
:1028F00027EE277AC6EE276A84ED0D7AC4ED0C6ABE
:102900006DB1204640F8185F01F076FF0649036973
:102910000020064A2162A262E36005B030BD0120BA
:1029200005B030BDD006002400200030000000308B
:1029300000680830704700BFB1F5807F03680A4621
:1029400028BF4FF48072B1F5807F9A6094BF002059
:10295000012070470068183001F0AEBF70B5046800
:102960008AB0A369E160CBB104F11805284601F0F3
:1029700043FF8446EE46E668BCE80F00AEE80F0071
:10298000BCE80F00AEE80F009CE803008EE80300EF
:1029900069462846049601F037FEF8B9E069D8B1D7
:1029A00004F11C05284601F027FF8446EE46E46842
:1029B000BCE80F00AEE80F00BCE80F00AEE80F0067
:1029C0009CE803008EE8030069462846049401F061
:1029D0001BFE003818BF01200AB070BD01200AB0EC
:1029E00070BD00BF30B5046883B00D46E3694BB1DC
:1029F000A3680020E26A616A9B00009004F11C0059
:102A000001F0FCFEA3680748A26A9B00216A0090BF
:102A100004F1180001F0F2FE0020C4E9005003B0F8
:102A200030BD00BF051D000810B4074B4FF07E51AC
:102A300030240022032019619C60D8605DF8044BAB
:102A40005961C3E906227047D0060024704700BFD1
:102A5000F8B5134F3C687F2C07D98023114A42F206
:102A600024411C463B60A2F87E100F4D2B68012BC1
:102A70000AD90C4E0D4D22463146284600F02CF95D
:102A80000028F8D13860F8BD22460649074800F012
:102A900023F90028F7D12B68386001332B60F8BD8B
:102AA0000C070024100700240807002490070024C6
:102AB00030B4154C2168F1B14B1E144DE81810F8D4
:102AC00001298C4619460A2A01D00D2A02D14BB1A0
:102AD000013BF4E70CF102037F2B10D98023236024
:102AE00030BC70470122022323600D200A23685462
:102AF000AB5430BC704701220223044DF4E70CF1C3
:102B000001026146F0E700BF0C0700241007002413
:102B100010B5094C02460B46084821680844C1F12B
:102B2000800110F0E3FC236818442060FFF7C0FF29
:102B3000FFF78EFF10BD00BF0C0700241007002414
:102B40000FB400B583B004A951F8040B0191FFF74D
:102B5000DFFF03B05DF804EB04B0704710B5044626
:102B600000210A4800F032F8002C094B14BF022261
:102B7000002208481A60FFF7E3FF0748FFF7E0FF6D
:102B80000A20BDE8104001F05FBF00BF900700249D
:102B9000080700247447010884470108064A0749CA
:102BA000074808B510F060F8034A04490548BDE835
:102BB000084010F059B800BF000000244D2A00085A
:102BC0009007002494070024704700BF012910B526
:102BD00006D0022915D051B1BDE8104006F082BCE4
:102BE0000A46344834490AF017FEE8B1FEE7334B91
:102BF0000A46334C334934481C600AF00DFE68B174
:102C0000FEE701222C492B480AF006FE00B1FEE740
:102C10002E4928480AF022FEC0B1FEE72B492A4877
:102C20000AF01CFE60B1FEE7284922480AF016FEB1
:102C300000B1FEE726491F480AF09EFD08B3FEE7F3
:102C4000244921480AF098FDA8B1FEE72049194817
:102C50000AF092FD00B1FEE716480AF015FE0246A2
:102C600040B9164B164C174917481C600AF0D4FDA2
:102C700068B1FEE7FEE714480AF006FE0028ABD074
:102C8000FEE70C480AF000FE0028A5D0FEE70F4939
:102C90000D480AF0E3FD00B1FEE70E490A480AF0CC
:102CA0006BFD00B1FEE708480AF0EEFD002893D066
:102CB000FEE700BF340A0024A0000024D00C00244A
:102CC000C92B000884000024980700240801002470
:102CD0006400002454000024084691B208B502F0B4
:102CE00089F9003818BF012008BD00BF10B50B4B93
:102CF000012A0B4C08461960216006D0022A01D037
:102D00003AB110BD02F08CF92068BDE8104002F025
:102D10008DB9BDE8104002F083B900BFD00C00248B
:102D2000D40C0024014805F0BBBE00BFD0370024FE
:102D3000014805F0B5BE00BFD0370024014805F0BA
:102D4000AFBE00BFD037002400B583B04FF0000EF7
:102D50004FF0030C4274ADF80410BDF8043080F855
:102D600010E0A0F802C0038003B05DF804FB00BFD0
:102D70002DE9F04FDFF81C8300258DB0C04C0370A7
:102D800008F140034260074601920E462022294680
:102D90004046C4F86831C4F86481CDE90255CDE9F4
:102DA0000455CDE90655CDE90855CDE90A5510F091
:102DB00031FA2022294604F5A170C4F83151C4F833
:102DC0003551C4F83951C4F83D5110F023FA019B34
:102DD00084F8485284F830317A68002A6AD02B4649
:102DE00004F59871454606F1100A9E46F01856F80B
:102DF00003B0E2180EF1010ED0F80CC0D0F8049028
:102E0000D0F8088044F803B0C2F80CC04FF0000CB2
:102E1000C2F80490C2F80880008A25F802CB10821C
:102E20001AF8032001F8012F002A70D07A684FF0B9
:102E300001001233724584F84802D7D84FF480223B
:102E400090489DF8043008214FF000084FF0000929
:102E5000C4F884310023C4E95B020122C4F8743150
:102E600084F88031C4E95E2194F84812C4E9648989
:102E7000A9B3C4F89821002284F8813184F88831FC
:102E80003B78C4E96722002B38D0012200200121C1
:102E9000013B84F8A421C4E96C01082B30D8DFE899
:102EA00013F0BD00C200C700CC00D100D600DB008B
:102EB000E100E8009DF804300121C4F87421C4F851
:102EC00084314FF4802384F880216E4AC4E95B2367
:102ED00008230022C4E95E130023C4E9642301230C
:102EE000002284F88131002384F888310323C4F858
:102EF00098313B78C4E96722002BC6D184F8A4310D
:102F0000614803F0BFF9034638B1FFBEFEE77A68B7
:102F1000123372453FF66AAF90E702A95A4802930E
:102F200003F00EFB8246002876D1042240F2FF71A6
:102F30000A90CDE9081294F83021002A00F0F380BD
:102F40004FF006080AEBCA034FEACA0904EB430331
:102F50005B7C072B07D8DFE803F0595C5653504DD4
:102F60004A04072307930FFA8AF6D14406EBC606F4
:102F700004EB490904EB46077500384600F020FBD6
:102F800099F81030042B00F3AA80022B00F3BD80C7
:102F900000F0B98004EB0A03002283F8202114F822
:102FA0001630002B78D0022B00F08A80012B40F0E5
:102FB000B2807B78012B00F0B080002B334B18BF20
:102FC000002305A93048CDE9053802F087FD002827
:102FD00040F0AC800AF1010A94F830315FFA8AFAC5
:102FE000534540F2A0802A4B53F82A80AAE70623D3
:102FF0000793B8E705230793B5E704230793B2E7E0
:1030000003230793AFE702230793ACE7002307935B
:10301000A9E701230793A6E7FFBEFEE703224023AB
:10302000C4E96A236CE707226023C4E96A2367E7DF
:103030000F228023C4E96A2362E71F22A023C4E988
:103040006A235DE73F22C023C4E96A2358E77F2251
:10305000E023C4E96A2353E7FF224FF48073C4E9F5
:103060006A234DE740F2FF124FF49073C4E96A23DC
:1030700046E740F2FF324FF4A073C4E96A233FE70A
:10308000E00C0024002002404C0E00240002B02579
:1030900094470108004000307B78062B37D0072B7F
:1030A0003DD0022B4AD0032B4AD0002B4CD0012B11
:1030B00048D0042B4AD0052B254B18BF002380E7AE
:1030C0007B78042B25D0052B2BD08BB3012B31D053
:1030D000022B31D0032B1F4B18BF002371E70323B2
:1030E000043504EB0A0B4FF0000925448BF820311E
:1030F000284609F1010900F063FA9BF820310435F4
:103100004B45F5DC4BE70123EAE70223E8E7124BE6
:1031100057E7124B55E7002353E7114B51E7114B8B
:103120004FE7114B4DE70DB0BDE8F08FFFBEFEE756
:103130000E4B46E70E4B44E70E4B42E70E4B40E783
:103140000E4B3EE70E4B3CE70E4B3AE70E4B38E793
:103150000000B84F002090360800900C1000C010FE
:103160002000F0148000501D000180210004002A7E
:103170000008302E001060320040C03A0080F03E5F
:1031800000005247000021430000844B38B5094C31
:1031900040F2FF724FF0011104F5B675284603F0B6
:1031A0007DF994F83021D4F864112846BDE8384000
:1031B00002F0E8BEE00C0024064B0F29D3F864317E
:1031C00098BF03EB41031B8800EE103ABBEEC80A20
:1031D000704700BFE00C0024214B02689A4200D0E7
:1031E0007047204A00232048D2F8D81030B51F4C31
:1031F00041F0200183B0C4F8D001092004F5E8753E
:10320000C4E975034FF48060C2F8D810D2F8D82012
:103210004FF40061C4E9773094F8480202F02002CC
:10322000C4F8E4114FF40051984201922846C4F8C2
:10323000E811C4E97C33019B14BF00234FF4807371
:10324000C4F8EC3103F0A2FB08B1FFBEFEE704F5C1
:10325000B673C4F8B851C4F8083203B030BD00BF2B
:10326000002002400044025840000240E00C0024CC
:10327000014803F003BF00BFB00E002402682DE92F
:10328000F84F4B4B9A4201D0BDE8F88F494D95F865
:103290004832002BF8D095F83031002B77D000243D
:1032A00005F10C0905F5A17605F59877A04613E020
:1032B00003F0010117F811BCA9F1080000F05CFA55
:1032C000BBF1010F25D895F83031013409F112090D
:1032D0000236A2B293422BD917F8012F002AF4D05C
:1032E000D5F864310021327833F81400D5F868310C
:1032F00003EB041323F81200338801339BB23380AD
:103300005FFA83FA3A789A42D2D88A46A6F80080C1
:10331000D0E7CAF34001A9F1040000F02DFABBF197
:10332000020FCAF38001CED0484600F025FACAE762
:10333000002395F84802204909229842C5F8D8315F
:103340004FF48060C5F8D011C5F8D4214FF4006166
:103350004FF40052C5F8DC3108BF4FF48073C5F854
:10336000E821C5E9780100221448C5E97B32C5F897
:10337000F42103F00BFB08B1FFBEFEE795F8302106
:10338000D5F864110E48BDE8F84F02F0FBBD0A49BC
:1033900009224FF48060C5F8D831C5E974124FF4A2
:1033A00000614FF40052C5E97730C5E97912DAE7D8
:1033B00000200240E00C002440000240B00E002437
:1033C0004C0E0024704700BF10B592B0ADF8041049
:1033D0000180C9B2149C0B29C460C0E901233FD00D
:1033E00090F801C0BCF10F0F3AD8022A3FD0032A4F
:1033F00002D0012A00D000220E92012B02D0022B13
:1034000018BF0023022C0F932CD0032C2AD0012CA0
:1034100028D000230A29109327D85C4A02EB812286
:1034200002610A2914D8DFE801F0A39587796B5D62
:103430004F4133250600564BD3F8E01041F480612C
:10344000C3F8E010D3F8E03003F480630C930C9BD6
:1034500001230DA9104603FA0CF30D9304F060F953
:1034600012B010BD0A291094D7D90022D8E7112232
:103470000E92C2E7464BD3F8E01041F40071C3F856
:10348000E010D3F8E03003F400730B930B9BDFE7FD
:103490003F4BD3F8E01041F48071C3F8E010D3F84B
:1034A000E03003F480730A930A9BD1E7384BD3F8DA
:1034B000E01041F08001C3F8E010D3F8E03003F0F1
:1034C00080030993099BC3E7314BD3F8E01041F027
:1034D0004001C3F8E010D3F8E03003F04003089354
:1034E000089BB5E72A4BD3F8E01041F02001C3F860
:1034F000E010D3F8E03003F020030793079BA7E721
:10350000234BD3F8E01041F01001C3F8E010D3F8DA
:10351000E03003F010030693069B99E71C4BD3F8A9
:10352000E01041F00801C3F8E010D3F8E03003F0F8
:1035300008030593059B8BE7154BD3F8E01041F08A
:103540000401C3F8E010D3F8E03003F0040304935F
:10355000049B7DE70E4BD3F8E01041F00201C3F865
:10356000E010D3F8E03003F002030393039B6FE70E
:10357000074BD3F8E01041F00101C3F8E010D3F895
:10358000E03003F001030293029B61E70000025860
:103590000044025808B5012143780069994089B276
:1035A00004F0C6FA003818BF012008BD01230A46FE
:1035B0004178006903FA01F189B204F0BFBA00BF93
:1035C0008378022B30B504468FB037D0032B33D02D
:1035D000012B31D000230A93E378012B2AD0022B50
:1035E00028D000230B93002320460C9302F0F0F820
:1035F0000546204602F0F4F823780990082B13D8EA
:10360000DFE803F01F3245586B7E91A40500594B4B
:10361000D3F8E02042F48072C3F8E020D3F8E03021
:1036200003F480730893089B09A9284604F078F8EE
:103630000FB030BD0B93D6E70A93CDE711230A9361
:10364000CAE74C4B09A92846D3F8E02042F0010212
:10365000C3F8E020D3F8E03003F001030093009BAF
:1036600004F05EF80FB030BD424B09A92846D3F8EC
:10367000E02042F00202C3F8E020D3F8E03003F08B
:1036800002030193019B04F04BF80FB030BD394B9E
:1036900009A92846D3F8E02042F00402C3F8E0204C
:1036A000D3F8E03003F004030293029B04F038F8EF
:1036B0000FB030BD2F4B09A92846D3F8E02042F0C7
:1036C0000802C3F8E020D3F8E03003F008030393C6
:1036D000039B04F025F80FB030BD264B09A92846FE
:1036E000D3F8E02042F01002C3F8E020D3F8E03035
:1036F00003F010030493049B04F012F80FB030BDE4
:103700001C4B09A92846D3F8E02042F02002C3F858
:10371000E020D3F8E03003F020030593059B03F08D
:10372000FFFF0FB030BD134B09A92846D3F8E020A6
:1037300042F04002C3F8E020D3F8E03003F0400349
:103740000693069B03F0ECFF0FB030BD094B09A9AF
:103750002846D3F8E02042F08002C3F8E020D3F8F6
:10376000E03003F080030793079B03F0D9FF0FB00D
:1037700030BD00BF0044025870B506460D4602F049
:1037800027F80446304602F02BF82A1E0146204650
:1037900018BF0122BDE8704004F0D0B90023122206
:1037A00070B586B0CDE9022304930368032B01D8DA
:1037B00004230593061D841D304602F009F80546D2
:1037C000304602F00DF8034601A92846019303F0A4
:1037D000A7FF204601F0FCFF034620461C4601F0EF
:1037E000FFFF01A903462046019303F099FF06B0AD
:1037F00070BD00BF634A0368934210B58CB028D0F7
:10380000614A934258D0614A934200F09480604AE2
:10381000934201D00CB010BD5E4C5F48D4F8E0304C
:1038200043F00203C4F8E030D4F8E03003F00203C0
:103830000A930A9BFFF7B2FFD4F8F43043F08003F9
:10384000C4F8F430D4F8F43003F080030B930B9BEE
:10385000E0E7504C5148D4F8E03043F00203C4F89C
:10386000E030D4F8E03003F002030193019BFFF74E
:1038700095FFD4F8E83000221F2043F400131146CE
:10388000C4F8E830D4F8E83003F400130293029B44
:10389000D4F8D83043F00103C4F8D830D4F8D83085
:1038A00003F001030393039B02F0BEFE1F200CB044
:1038B000BDE8104002F0F6BE364C3948D4F8E0308E
:1038C00043F08003C4F8E030D4F8E03003F0800324
:1038D0000493049BD4F8E03043F00203C4F8E030D2
:1038E000D4F8E03003F002030593059BFFF756FF81
:1038F000D4F8E8300022212043F480031146C4F8B4
:10390000E830D4F8E83003F480030693069BD4F83B
:10391000D83043F00103C4F8D830D4F8D83003F0DD
:1039200001030793079B02F07FFE21200CB0BDE846
:10393000104002F0B7BE1B48FFF730FF154B0022C6
:103940004820D3F8E840114644F40004C3F8E840A6
:10395000D3F8E84004F400040894089CD3F8D84055
:1039600044F00104C3F8D840D3F8D83003F0010381
:103970000993099B02F058FE48200CB0BDE81040A6
:1039800002F090BE0054004000580040005C00402F
:10399000001C005800440258B8110024300F0024C5
:1039A00008100024E01000242DE9F0431A4B87B0E2
:1039B00000254FF010099E46EC46184BFF22E046CA
:1039C00067461A700EF118060EF13004CDE9005565
:1039D000CDE90255ADF80090BCE80F00CDE90455E3
:1039E000AEE80F009CE803000095ADF800908EE86B
:1039F0000300B8E80F000FC69CE803000095ADF87F
:103A0000009086E803000FCF0FC49CE8030084E811
:103A1000030007B0BDE8F083040000242C0F00244D
:103A200010B5EFF3108472B6084B1A78120602D55F
:103A300004B962B610BD1B78D82205485BB202FB00
:103A40000300143003F01AFBF2E700BF2C0F002430
:103A5000300F0024014804F009BF00BFBC0F002450
:103A6000014804F003BF00BF94100024014804F093
:103A7000FDBE00BF6C1100242DE9F0430F68D8246F
:103A80003F4D85B007FB04F4032F05EB04030360EF
:103A900040DCCB680E46012B3CD84DD04FF0D80807
:103AA000B646DFF8FC9008FB0758BEE80F00C44696
:103AB000ACE80F00DEF800300DF1100ECCF800304D
:103AC000D8F808C099E80F000EE90F000EEB870345
:103AD000BCF1010F53F8103CC8F88C3031D0BCF168
:103AE000020F42D0BCF1000F35D0317C8C34D8238A
:103AF000002201202C4403FB07534900C3E926029E
:103B0000C3F894102046C3E92822C3E92A2204F00E
:103B10009FFC18B1012005B0BDE8F08301462046A6
:103B200004F0B0FE0028F5D10146204604F0D4FE92
:103B3000003818BF0120EEE70B7C103B672BADD996
:103B4000E8E701F01BF90F4B98420CBF0E4B0F4BEF
:103B5000C8F89030C9E701F011F90A4B98420CBF40
:103B60000B4B0C4BC8F89030BFE701F007F9054B41
:103B700098420CBF084B094BC8F89030B5E700BF1E
:103B8000300F0024000E27072D0FB0303211D02047
:103B90005F4390608A62E030200BA0101A09801009
:103BA000584601082DE9F041D0F8008082B00D465A
:103BB00017461E4608F18C04204604F05FFE2028BC
:103BC000FAD1D8F80C3073B96D002046089C334602
:103BD0003A46A9B2009404F091FC003818BF0120C5
:103BE00002B0BDE8F081089B32463946204604F019
:103BF00059FDF2E7044B10221A7483F8E82083F889
:103C0000C02183F898227047300F002430B500237C
:103C100095B04FF48071062204460B9306921393DD
:103C2000CDE90C13CDE90E33CDE9113301F0A8F83D
:103C300007282BD004F1100541F2883206A9284646
:103C400005F09CFD28B10123184684F85C3015B0BE
:103C500030BD0222022306A92846CDE90023102206
:103C60000123CDE9022300224FF48003CDE9042390
:103C700005224FF0807306926A460F9341F2883313
:103C800005F0E8FE0028DED115B030BD0323012089
:103C900084F85C3015B030BD70B50023A4B04FF08F
:103CA00080724FF480750446ADF806300D93CDE96F
:103CB00010320122CDE90E53CDE91223CDE91433A0
:103CC000002943D0F02300F1100508AEADF806300E
:103CD000C02341F2883231462846089305F04EFD54
:103CE00028B10123184684F85C3024B070BD41F23D
:103CF00088320DF10601284605F0AAFD034600288A
:103D0000EFD105224FF480711E93284616924FF092
:103D100080721B9321931F9202AA9FED1F7BCDE916
:103D20001C13CDE922338DED027B9FED1D7B41F20B
:103D3000883316A98DED047B9FED1B7B8DED067BF3
:103D400005F088FE0028CCD124B070BD00F110052C
:103D500008AE612341F2883231462846089305F0C7
:103D60000DFD0028BDD141F288320DF10601284633
:103D700005F0ECFD0028B4D1BDF80630204623F054
:103D8000780343F04003ADF80630FFF73FFF00280B
:103D90009ED0A6E7AFF30080000000000100000005
:103DA00010000000010000000000000000004000C2
:103DB0002DE9F04F00234FF4807501264FF08078F5
:103DC00004462DED028BABB08DF807301393219391
:103DD000299314950E96CDF85C80CDE91533CDE985
:103DE0001863CDE91A33CDE92253CDE92433CDE967
:103DF000273306231C9300F0C3FF072808D004F1E3
:103E0000100741F288321CA9384605F0B7FC40B1D2
:103E10000123184684F85C302BB0BDEC028BBDE862
:103E2000F08F4FF0020A4FF0020B4FF0050941F2FC
:103E3000883308AA1CA93846CDF89480CDF8709034
:103E40009FED2D8BCDE908AB4FF0000A4FF4800BAE
:103E50008DED0A8BCDE90CAB05F0FCFD0028D7D128
:103E600041F2883238460EA905F088FC0028CFD1EF
:103E7000402341F288320DF1070138468DF80730B2
:103E800005F0E6FC0028C3D141F288330EA902AA4E
:103E90003846CDF83890CDF85C809FED197B8DEDDC
:103EA000048BCDE906AB8DED027B05F0D3FD034617
:103EB0000028ADD1CDF870904FF00109CDF8948075
:103EC0004FF00008219308AA29931CA9384622958F
:103ED000CDE92333CDE9273341F288338DED0A8BC9
:103EE000CDE90CABCDE9088905F0B4FD002893D0ED
:103EF000304684F85C608FE710000000010000008D
:103F000040000000400000002DE9F043624CA3B0E7
:103F10000D46046000F034FF072800F0A9802868EF
:103F200023466968AA6807C31E46AB8926F8043B86
:103F30003046257B677B05F003FCE0B9574B012D2C
:103F40004FF00108E061236114BF4FF480134FF478
:103F50000003C4E9058893FAA3F3B3FA83F34FF49B
:103F60008079013BC4F82490C4E90B0030462362F9
:103F700005F07AFB38B10122134684F85C2018461C
:103F800023B0BDE8F08366230B90139041F2883292
:103F900006A90693CDE90C90CDE90E00CDE91100FC
:103FA000304605F0EBFB0028E5D1992341F2883239
:103FB00006A93046069305F0E1FB0028DBD1052376
:103FC0001C9019906A4614934FF08073219014A9A5
:103FD0001D9341F288339FED2A7BCDE91A90CDE9FC
:103FE0001F008DED007B9FED287B30468DED027B21
:103FF0009FED277B8DED047B05F02CFD0028BAD1C9
:1040000029462046FFF748FE0028B4D12046FFF796
:10401000CFFE03460028AED1002FB0D11893304612
:104020000027002606AA14A9CDF86890CDE91F3311
:10403000EB2314934FF440631B934FF400531793F7
:104040004FF440431C93A0231693062319934FF07B
:10405000805321934FF04073CDE906671D9305F01F
:1040600071FD034600288AD0434684F85C8086E7C9
:1040700001230322184684F85C2023B0BDE8F083B6
:10408000000000000100000010000000010000001E
:104090000000000000004000901200240050005278
:1040A0002DE9F04F8FB0414B0024026800AF9A42D7
:1040B0007C63C7E90944C7E90B4403D03C37BD46DC
:1040C000BDE8F08F3A4B40F609213A48EB46D3F869
:1040D000D42007F11C0607F1220A4FF0020942F42E
:1040E00080424FF00308C3F8D420D3F8D42002F460
:1040F0008042BA60BA68D3F8E02042F04002C3F8C8
:10410000E020D3F8E02002F04002FA60FA68D3F829
:10411000E02042F02002C3F8E020D3F8E02002F0D3
:1041200020023A613A69D3F8E02042F01002C3F865
:10413000E020D3F8E02002F010027A617A69D3F827
:10414000E02042F00202C3F8E020D3F8E030F8614A
:1041500003F002033984BB61174B7B60BB697B684A
:1041600053F8040F7B6001F033FB7B680546186849
:1041700001F036FB16F8013B786207F1240128466E
:10418000C7F830807B63C7E90A9403F0C9FA564543
:10419000E5D100225C20114602F046FA5C2002F0D4
:1041A00081FA3C37DD46BD46BDE8F08F0050005235
:1041B000004402580A0A0909EC120024114B026853
:1041C0009A4200D07047104A70B5D2F8D4300F4CE4
:1041D00023F4804304F11806C2F8D43054F8040FD5
:1041E00001F0F6FA0546206801F0FAFA0146284681
:1041F00003F0D6FBB442F1D15C20BDE8704002F080
:104200005FBA00BF0050005200440258EC12002474
:10421000014805F023BD00BFA0120024084B1A1D61
:10422000981D03F1080110B49C1C9A6603F10A0260
:10423000C3E91834C3E91B015DF8044B5A677047A2
:104240009012002438B5036871B9026A00F128059C
:1042500000F5AC74012A0CBF002140218BBB1D4B23
:104260005722C0F858310DE0426A00F1C00500F550
:10427000E874012A0CBF00214021EBB1164B5A22F1
:10428000C0F8D03100232046C4E901214FF4805208
:104290004FF48061636262614FF48042C4E903318C
:1042A0004FF48073C4E906234FF40033236202F015
:1042B0006DFB58B1FFBEFEE7084B5822C0F8D03165
:1042C000E0E7074B5922C0F85831DBE7C5E9204445
:1042D000A56338BD10000240700002402800024073
:1042E000580002402DE9F043821D05468BB0031DA6
:1042F00005F10A010830CDE9052305F10C02AB698F
:10430000CDE907010992002B3DD0EB69B3FA83F8A0
:104310004FEA58180123022205AE0AAF4FF00609F2
:104320000393CDE9012356F8044B2B79227893426D
:1043300016D02B68F3B1012B02D1F2B10A230493FA
:10434000204601F04DFA03462046009301F040FA62
:10435000694603F0E5F9BE42E5D10BB0BDE8F08354
:10436000697963789942E4D1B8F1000FF3D02B68F2
:10437000002BE0D1CDF81090E2E76378022B14BF58
:104380000A230823DBE74FF00108C3E7534A036819
:10439000934230B505468BB055D02032934252D06F
:1043A0004F4A934204D02032934201D00BB030BD2B
:1043B0004C4C4D48D4F8E03043F00103C4F8E030F1
:1043C000D4F8E03003F001030593059BD4F8E03006
:1043D00043F00803C4F8E030D4F8E03003F00803F9
:1043E0000693069BD4F8E03043F04003C4F8E03075
:1043F000D4F8E03003F040030793079BD4F8F03083
:1044000043F40003C4F8F030D4F8F03003F40003B0
:104410000893089BFFF766FFD4F8D830296843F06B
:1044200001032F4A3048C4F8D830891AD4F8D8305C
:1044300018BF012103F001030993099B0BB0BDE8EC
:104440003040FFF7FFBE274C2848D4F8E03043F057
:104450000103C4F8E030D4F8E03003F00103009326
:10446000009BD4F8E03043F01003C4F8E030D4F8F7
:10447000E03003F010030193019BD4F8E03043F0E7
:104480004003C4F8E030D4F8E03003F04003029376
:10449000029BD4F8F03043F48003C4F8F030D4F831
:1044A000F03003F480030393039BFFF71BFFD4F862
:1044B000D830296843F00103084A0C48C4F8D830C2
:1044C000891AD4F8D83018BF012103F001030493EE
:1044D000049B0BB0BDE83040FFF7B4BE0458014068
:1044E000045C0140004402586415002408130024B1
:1044F000014802F0C3BD00BF60140024014802F06F
:10450000BDBD00BFD8140024014802F0B7BD00BFF4
:10451000BC160024014802F0B1BD00BF34170024CE
:104520001A4A0368934210B40BD02032934208D049
:10453000174A934216D02032934213D05DF8044BB1
:104540007047144B0022D3F85442C3F85822002C71
:10455000F4D0D3F84802D3E9931223465DF8044B14
:10456000520818470B4B0022D3F8B044C3F8B424C8
:10457000002CE3D0D3F8AC24D3F8A814D3F8A404C7
:10458000520823465DF8044B184700BF0458014009
:10459000045C014008130024184A0368934210B4D5
:1045A0000BD02032934208D0154A934217D02032C4
:1045B000934214D05DF8044B7047124BD3E9942416
:1045C0005208C3F85822002CF4D0D3E992012346B4
:1045D00001EB820100EB82005DF8044B1847094BA8
:1045E000D3F8AC24D3F8B0445208C3F8B424002C58
:1045F000E0D0D3F8A814D3F8A404E8E704580140A5
:10460000045C0140081300242DE9F04F0C684FF4BE
:104610001776754F87B004FB06F6012C07EB060AE8
:10462000C0F800A000F3A0800D468E464FF00008B1
:10463000D44669A3D3E9002369A1D1E90001CDE9FA
:10464000022306ABCAF8508203EB8403CDE90401D0
:1046500053F810BC53F8083CCAE992880193BEE8AD
:104660000F00ACE80F00BEE80F00ACE80F00019BA4
:104670009EE80300CAF828B0CAF8C0308CE80300EE
:104680002B69042B0CD8DFE803F0737D87910300BE
:104690004FF41773554A03FB04739A64C3F8E02080
:1046A000AA692B6A002A43D0002B4FF4177308BF66
:1046B000022203FB047318BF0322DA6201221A6389
:1046C000EA696B6A002A40D1191E4FF4177318BFAC
:1046D000012103FB0473C3E931126B69022B05D876
:1046E000434A12F80380434A52F823904FF4177359
:1046F00006F128004246494603FB0474002338446F
:1047000063646363E365C4F8DC30C4F8CC30C4F898
:10471000F430C4E90F33C4E91533C4E93533C4E9CF
:104720003B33022307F03CFB002849D0FFBEFEE7E5
:10473000191E4FF4177318BF012103FB0473C3E95B
:104740000B12EA696B6A002ABED0002B4FF4177374
:1047500008BF022203FB047318BF0322C3F8C4205E
:104760000122C3F8C820B8E7012007B0BDE8F08FE8
:104770004FF417734FF4FA5203FB04739A64C3F8AF
:10478000E0208DE74FF417734FF47A5203FB047364
:104790009A64C3F8E02083E74FF417734FF4FA42AA
:1047A00003FB04739A64C3F8E02079E74FF41773AE
:1047B0004BF6803203FB04739A64C3F8E0206FE782
:1047C00006F1C000022342464946384407F0E8FAA1
:1047D0000028CAD0FFBEFEE704580140045C014037
:1047E00024580140245C0140081300240077010094
:1047F000D4470108D84701080068704770B50468BD
:1048000082B015460E46C4F85032C4E99212069A98
:10481000C4F85422A269012A26D0626A012A9AB2F7
:1048200011D0294604F1C000019207F075FB236AFC
:10483000019A012B10D0294604F1280007F06CFBE7
:10484000002002B070BD04F1C000019207F0F6FB39
:10485000236A019A012BEED1314604F1280007F0BA
:10486000EDFB002002B070BD226A012A9AB211D07D
:10487000294604F12800019207F04EFB636A019A71
:10488000012B10D0294604F1C00007F045FB0020A1
:1048900002B070BD04F12800019207F0CFFB636AFB
:1048A000019A012BEED1314604F1C00007F0C6FB9E
:1048B000002002B070BD00BF03681B69042B05D83F
:1048C000044A02EB830393ED000A70479FED020A4E
:1048D000704700BFE447010800803B470368D3F8F6
:1048E00058027047704700BF08B501F081F8BDE875
:1048F000084001F061BF00BF064808B503680BB16E
:1049000003F020F9044803681BB1BDE8084004F037
:10491000C7B808BDE0410024D83B0024064808B5CC
:1049200003680BB103F00EF9044803681BB1BDE83E
:10493000084004F0B5B808BDE0410024D83B00248D
:10494000064808B503680BB103F0FCF80448036897
:104950001BB1BDE8084004F0A3B808BDE041002445
:10496000D83B0024364BDA6A520062D59A6A9A6ABA
:104970009A6A9B6A180600D500BE314B9B6A99065D
:1049800000D500BE2E4B9B6ADA0600D500BE2C4B2C
:104990009B6A1B0700D500BE294B9B6A980700D570
:1049A00000BE274B9B6AD90700D500BE244B9B6AEB
:1049B0001A0400D500BE224B9B6A9B0400D500BEA2
:1049C0001F4B9B6AD80400D500BE1D4B9B6A19057E
:1049D00000D500BE1A4B9B6A5A0500D500BE184B85
:1049E0009B6A9B0500D500BE154B9B6AD80500D578
:1049F00000BE134B9B6A990100D500BE104B9B6A09
:104A0000DA0100D500BE0E4B9B6A1B0300D500BE29
:104A10000B4B9B6A580300D500BE094B9B6A990358
:104A200000D500BE064B9B6ADA0306D400BE00BE6A
:104A3000FEE7DB6A9B07FAD5F8E700BEF6E700BFA2
:104A400000ED00E000F0E0BF00F0E4BF0A4B9B681F
:104A500003F17843B3F5003F0BD3084B986848B196
:104A60009868012806D09868022803D09B68032024
:104A700070470120704700BF00ED00E00000803863
:104A80002DE9F041CEB004464C2200210AA80EF0D8
:104A9000C1FB2022002102A80EF0BCFBBC22002199
:104AA0001EA80EF0B7FB022004F0F6FC2368012BD1
:104AB0004FF0000354D0534A02250193C820D16A15
:104AC000514B21F00101D162D26A02F00102019240
:104AD0009A6942F440429A619B6903F4404301930E
:104AE000019B494A93699B04FCD548490224002252
:104AF00001268B6A04274FF0080823F003032343A1
:104B00008B62052316900AA818934FF480331096F1
:104B1000179419941597CDF86880CDE91B222122AE
:104B2000CDE91344CDE90A2305F0A0F900B1FEE771
:104B30003F220323294602A8CDE9022300220823AD
:104B4000CDE9042340224023CDE9062340234FF43E
:104B50008062CDE9082305F0B7FC0346B8B1FEE753
:104B6000294A04250093F0209169264B41F44041E5
:104B70009161926902F440420092DA6A42F00102C5
:104B8000DA62DB6A03F001030093009BA9E72022AD
:104B90004FF4805125934FF440152B9280222D9392
:104BA0001EA83093269135914FF48071249234924F
:104BB0000C223394439140F2271120921022CDF819
:104BC00084802A971F96CDE92E34CDE93B334FF4EC
:104BD0008033CDE922463193002446930623CDE964
:104BE0003E4527934FF48063094C2C931E94CDE9E6
:104BF000281205F0C5FE00B1FEE704F073FC4EB0CC
:104C0000BDE8F081000400580048025800440258F2
:104C10000F130F0370B584B0012401F07BFD4FF436
:104C200080764FF04052194B68460025ADF80040A1
:104C30000396CDE9012301F08BFD19224FF040438B
:104C400068468DF8082001938DF80F40ADF80D608F
:104C50008DF801408DF80A5001F07AFD02230B22F5
:104C600068468DF80F508DF801304FF062538DF883
:104C700008200193ADF80D408DF80A4001F068FD61
:104C8000042001F055FD04B070BD00BF0E0001030B
:104C900030B50D46044685B0D1E9000184E8030033
:104CA00000F076FEAB79A3B30BF0C8F9FEF77CFEFB
:104CB00009F02EFE0AF0BAFE2B798BBB6B799BB103
:104CC000BFF34F8FBFF36F8F2A4B0022C3F85022E0
:104CD000BFF34F8FBFF36F8F5A6942F400325A61AE
:104CE000BFF34F8FBFF36F8F4FF0FF3200230024CD
:104CF00000256946204802928DF80C30CDE9004528
:104D00000AF026FA1C480AF08BFA09F031FA05B0CD
:104D100030BD2046FFF7B4FE2046FFF77BFFC3E718
:104D2000144C0023C4F88430BFF34F8FD4F88010A4
:104D300043F6E07EC1F34E3CC1F3C9014FEA4C1C7F
:104D40000CEA0E000B4640EA8372013BC4F8602275
:104D50005A1CF8D1ACF1200C1CF1200FF0D1BFF39C
:104D60004F8F636943F480336361BFF34F8FBFF3A9
:104D70006F8FA3E700ED00E0C017002405F0D4BC5E
:104D80001C4B9B6803F17842B2F5003F25D3B3F585
:104D9000803F20D303F16042B2F5003F1FD303F1FF
:104DA0005C42B2F5002F1CD303F17042B2F5902F94
:104DB00019D303F14842B2F5803F16D303F1804284
:104DC000B2F1806F13D303F1E043B3F5000F2CBFB2
:104DD00008200720704701207047002070470220FC
:104DE0007047032070470420704705207047062055
:104DF000704700BF00ED00E003480023034A044968
:104E000003600DF031BF00BFC01700240000002474
:104E1000E548000810B4204C0022204B83B0D4F8A1
:104E200088101F4841F47001C4F8881019681D4C9F
:104E300041F0010119601A61196808401A491860A7
:104E40009A61DA611A629A62DA621A635A639A6341
:104E5000DA631A645A64186820F4802018601A66AD
:104E6000D3F8DC2042F06042C3F8DC20D3F8DC3019
:104E70000193019B23681940B1F1005F03D20B4BF2
:104E80000122C3F80821044B4FF000629A6003B07E
:104E90005DF8044B704700BF00ED00E0004402588D
:104EA0007FEDF6EA0010005C0000FFFF008000517B
:104EB000704700BF0020704770B50446074E0D468E
:104EC0003046214608F06AFC304608F089FC044B65
:104ED000204629461B689847002070BD980700248B
:104EE000C437002470B50446074E0D4630462146AF
:104EF00008F054FC304608F073FC044B2046294669
:104F00001B689847002070BD340A0024C83700246D
:104F100000220949094808B508F036FC0849074845
:104F200008F03CFC074B1A680AB1002008BD064A8D
:104F300000201A6008BD00BFC42700249807002481
:104F4000C4170024C4370024B14E000800220949C8
:104F5000094808B508F018FC0849074808F01EFC85
:104F6000074B1A680AB1002008BD064A00201A60E3
:104F700008BD00BFC42F0024340A0024C41F00242D
:104F8000C8370024B14E000820280AD0212806D1B5
:104F9000094B18689A889B7908608A808B71002079
:104FA0007047054B0868B1F804C08A791860002082
:104FB000A3F804C09A7170477400002420280AD016
:104FC000212806D1094B18689A889B7908608A8045
:104FD0008B7100207047054B0868B1F804C08A79CE
:104FE00018600020A3F804C09A7170477C00002468
:104FF0000020704710B5094CD4F89032D3F8143221
:105000000BB1012010BD0A460146204608F0BCFB4A
:105010002046BDE8104008F0C9BB00BF9807002437
:10502000014B1860704700BFC4370024014B186063
:10503000704700BFC83700244B4A036830B593421D
:105040008BB04FF00004CDE90444CDE90644089448
:1050500004D0464A934249D00BB030BD444D4FF482
:10506000C0524448D5F8E03043F00103C5F8E030C1
:10507000D5F8E03003F0010300930223009904A95E
:10508000CDE904230A23089302F04AFB4FF400728F
:10509000002304A937480694CDE9042302F040FB1D
:1050A000D5F8D8302246214643F000636220C5F887
:1050B000D830D5F8D83003F000630193019B01F09C
:1050C000B3FA622001F0EEFA22462146632001F095
:1050D000ABFA632001F0E6FA22462146652001F092
:1050E000A3FA652001F0DEFA0BB030BD204D4FF47D
:1050F000404204A9D5F8E03043F00203C5F8E0309F
:10510000D5F8E03003F002030293022302981A4814
:10511000CDE904230C23089302F002FBD5F8D83024
:10512000224621464A2043F00073C5F8D830D5F80E
:10513000D83003F000730393039B01F075FA4A2003
:1051400001F0B0FA224621464B2001F06DFA4B20C7
:1051500001F0A8FA224621464D2001F065FA4D20C3
:1051600001F0A0FA0BB030BD000008400000044080
:1051700000440258000002580004025800F5717102
:10518000D0F8040408F098BBC1EBC10300EB830323
:10519000D0F80404D3F8082208F0BCBBC1EBC1036B
:1051A00000EB8303D0F804049A6C08F0F1BB00BF55
:1051B000D0F8040408F090BCC16810B5044619B1D9
:1051C000022900D0FEE70121D4F8040408F06EFCA7
:1051D000D4F80404BDE8104008F040BC10B5044603
:1051E000D0F8040408F066FC2268D2F8003E43F0D0
:1051F0000103C2F8003E236A23B1034A136943F056
:105200000603136110BD00BF00ED00E0D0F80404F8
:1052100008F05ABCD0F8040408F06EBCD0F80404BE
:1052200008F068BCD0F8040408F068BCD0F80404A6
:1052300008F066BC70B5067804461EB1012E30D069
:10524000002070BD304D0923304AC5F80404C0F871
:10525000985228462E612E63C5E9002302230222BC
:10526000EB600023C5E9062300220023C5E90823DB
:1052700001220123C5E90A2303F05AFB00B1FEE72E
:105280008021284604F0E8F831464022284604F000
:10529000B9F880220121284604F0B4F82678012EBE
:1052A000CED11B4D09221B4B00216A6002222B60CC
:1052B0000223C5F804442846EB600023C4F8985242
:1052C0002961C5E9062300220023C5E90823C5E9B1
:1052D0000C2301220023C5E90A2303F029FB04461D
:1052E00000B1FEE74FF40071284604F0B5F82146FE
:1052F0008022284604F086F84FF4BA7231462846D8
:1053000004F080F89CE700BFD0370024000008407C
:10531000D83B002400000440D0F8980208B503F000
:105320009DFB032802D8024B185C08BD022008BD73
:10533000084801089446D0F898021A4608B5634612
:1053400003F012FF032802D8024B185C08BD0220AC
:1053500008BD00BF08480108D0F8980208B503F05E
:1053600041FF032802D8024B185C08BD022008BD8B
:1053700008480108D0F8980208B503F0C3FF0328D5
:1053800002D8024B185C08BD022008BD084801087D
:10539000D0F8980208B503F0F9FF032802D8024BB1
:1053A000185C08BD022008BD084801080A06D0F8AC
:1053B000983206D4C1EBC10103EB810191F8FE01E3
:1053C000704701F07F01C1EBC10103EB810191F84E
:1053D0003E007047D0F8980208B503F0AFFE0328EE
:1053E00002D8024B185C08BD022008BD084801081D
:1053F000D0F8980208B503F05DFF032802D8024BED
:10540000185C08BD022008BD08480108D0F89802C1
:1054100008B503F01DFF032802D8024B185C08BD35
:10542000022008BD08480108D0F8980203F038BFF0
:10543000122301480B807047D0000024122301483A
:105440000B807047BC000024042301480B80704788
:10545000E400002410B5044C0A460448214608F034
:10546000CFFD204610BD00BFE03F00240C480108DE
:1054700010B5044C0A460448214608F0C1FD2046F8
:1054800010BD00BFE03F00241C48010810B5044CCB
:105490000A460448214608F0B3FD204610BD00BF6F
:1054A000E03F00243048010810B5044C0A46044887
:1054B000214608F0A5FD204610BD00BFE03F0024B6
:1054C0003C48010810B5044C0A460448214608F03F
:1054D00097FD204610BD00BFE03F00244C48010866
:1054E000042301480B807047E400002410B5044CED
:1054F0000A460448214608F083FD204610BD00BF3F
:10550000E03F00240C480108464A4FF01A0CD2F83C
:105510000008D2F80838A1F800C0C31801D14248E9
:105520007047180FB3F1204FD2F804184FF0000C59
:105530003D4A2CBF3730303082F803C04FF0000CAA
:105540009070C3F3036082F805C04FF0000C092887
:1055500082F807C04FF0000C8CBF3730303082F833
:1055600009C04FF0000C1071C3F3035082F80BC058
:105570004FF0000C092882F80DC08CBF3730303056
:105580009071C3F3034009288CBF3730303010725C
:10559000C3F3033009288CBF373030309072C3F327
:1055A000032009288CBF373030301073C3F3031049
:1055B00003F00F0309288CBF37303030092B90736C
:1055C0004FF0000094BF30333733B1F1204FD07328
:1055D00013744FEA11734FF000002CBF3733303390
:1055E000507400209374C1F30363D0740020092B1E
:1055F00050754FF000008CBF37333033D0751375C2
:10560000C1F303530848092B8CBF373330339375EC
:10561000C1F30343092B94BF303337331376002390
:105620005376704700E0F11FE8000024464A4FF02F
:105630001A0CD2F80008D2F80838A1F800C0C31834
:1056400001D142487047180FB3F1204FD2F8041827
:105650004FF0000C3D4A2CBF3730303082F803C089
:105660004FF0000C9070C3F3036082F805C04FF058
:10567000000C092882F807C04FF0000C8CBF3730AF
:10568000303082F809C04FF0000C1071C3F30350A2
:1056900082F80BC04FF0000C092882F80DC08CBFB7
:1056A000373030309071C3F3034009288CBF373056
:1056B00030301072C3F3033009288CBF37303030DC
:1056C0009072C3F3032009288CBF37303030107339
:1056D000C3F3031003F00F0309288CBF37303030B9
:1056E000092B90734FF0000094BF30333733B1F182
:1056F000204FD07313744FEA11734FF000002CBF8A
:1057000037333033507400209374C1F30363D07483
:105710000020092B50754FF000008CBF3733303319
:10572000D0751375C1F303530848092B8CBF373369
:1057300030339375C1F30343092B94BF30333733B0
:10574000137600235376704700E0F11FE800002431
:1057500010B5044C0A460448214608F051FC204686
:1057600010BD00BFE03F00243C48010810B5044CC8
:105770000A460448214608F043FC204610BD00BFFD
:10578000E03F002430480108D0F8C00208F0AABC6D
:10579000D0F8C00208F0BEBCD0F8C00208F0C6BC09
:1057A000704700BFD0F8C00208F0ACBCD0F8C0020F
:1057B00008F0ACBCD0F8D00308B502F083FD032894
:1057C00002D8024B185C08BD022008BD60480108E1
:1057D000024B027853F82200704700BF844801084A
:1057E000024B427833F81200704700BF644801084A
:1057F0008CB00A2814D8DFE800F01523313F4D5B48
:105800006977859306004D4BD3F8E02042F480621F
:10581000C3F8E020D3F8E03003F480630B930B9BD4
:105820000CB07047454BD3F8E02042F00102C3F8BA
:10583000E020D3F8E03003F001030193019BEFE790
:105840003E4BD3F8E02042F00202C3F8E020D3F848
:10585000E03003F002030293029BE1E7374BD3F8F9
:10586000E02042F00402C3F8E020D3F8E03003F077
:1058700004030393039BD3E7304BD3F8E02042F0BB
:105880000802C3F8E020D3F8E03003F008030493E3
:10589000049BC5E7294BD3F8E02042F01002C3F87F
:1058A000E020D3F8E03003F010030593059BB7E741
:1058B000224BD3F8E02042F02002C3F8E020D3F8D6
:1058C000E03003F020030693069BA9E71B4BD3F8B7
:1058D000E02042F04002C3F8E020D3F8E03003F0CB
:1058E00040030793079B9BE7144BD3F8E02042F05B
:1058F0008002C3F8E020D3F8E03003F0800308937F
:10590000089B8DE70D4BD3F8E02042F48072C3F87A
:10591000E020D3F8E03003F480730993099B7FE71C
:10592000064BD3F8E02042F40072C3F8E020D3F82D
:10593000E03003F400730A930A9B71E700440258B5
:10594000704700BF0F4B1B780BB90120704710B593
:1059500004464FF47A700C4AB0FBF3F31068B0FBC6
:10596000F3F000F0C1FE0F2C00D808B1012010BDEB
:10597000002221464FF0FF3000F056FE034B00207E
:105980001C6010BD020100244C000024040100240E
:1059900038B50320124D00F035FE124C04F0F4FC33
:1059A000114A12499369C3F30323CB5C03F01F032D
:1059B00020FA03F30E202B60926902F00F028A5C3A
:1059C00002F01F02D3402360FFF7BCFF10B1012497
:1059D000204638BD0446FFF7B3FF204638BD00BF60
:1059E0004C0000245000002400440258F8470108ED
:1059F000034A044B11681B780B441360704700BFC7
:105A0000A444002402010024014B1868704700BF21
:105A1000A444002438B50446FFF7F6FF0546631C8E
:105A200002D0044B1B781C44FFF7EEFF431BA3423C
:105A3000FAD338BD02010024014B1868000C7047EE
:105A40000010005C704700BF806B08B5FFF7FAFFDD
:105A500008BD00BF836B5A6D12F0500F5A6D10B520
:105A60001DD1196842F400725A650A6812F0080FD5
:105A7000CA681BD012F4406F0DD1CA6894040AD4CE
:105A80005A6D22F480725A655A6DD10403D45A6D4E
:105A900042F001025A651846FDF7F0FB10BDD20630
:105AA0000AD4DB6CBDE81040DB6C18479007E7D0E8
:105AB0001846FDF7E3FBF1E71846FDF783FC10BD40
:105AC000806B08B5436D43F040034365836D43F03D
:105AD00004038365FDF776FC08BD00BFF0B5002226
